:020000022000DC
:1070000000000420757302005D7302005F730200CC
:1070100061730200637302006573020000000000E8
:107020000000000000000000000000006773020084
:1070300069730200000000006B7302006D730200B0
:1070400089CE02006F730200E9B702006F7302007D
:107050006F7302006F7302003DB602006F7302008F
:107060006F7302006F7302006F7302006F73020090
:107070006F7302006F7302006F7302006F73020080
:107080006F730200C98602006F7302006F73020003
:107090006F7302006F73020015F202006F7302003B
:1070A0006F7302006F7302006F7302006F73020050
:1070B0006F7302006F730200000000000000000008
:1070C0006F7302006F7302006F7302006F73020030
:1070D0006F7302006F7302006F730200B9C7020082
:1070E0006F7302006F7302006F73020000000000F4
:1070F000000000006F730200000000006F730200C8
:10710000000000000000000000000000000000007F
:10711000000000000000000000000000000000006F
:10712000000000000000000000000000000000005F
:10713000000000000000000000000000000000004F
:10714000000000000000000000000000000000003F
:10715000000000000000000000000000000000002F
:10716000000000000000000000000000000000001F
:10717000000000000000000000000000000000000F
:1071800000000000000000000000000000000000FF
:1071900000000000000000000000000000000000EF
:1071A00000000000000000000000000000000000DF
:1071B00000000000000000000000000000000000CF
:1071C00000000000000000000000000000000000BF
:1071D00000000000000000000000000000000000AF
:1071E000000000000000000000000000000000009F
:1071F000000000000000000000000000000000008F
:10720000354936480A1A02D0072291438D4634493F
:1072100034480A1A06D00722914381F309880222D2
:1072200082F3148830483149314A00F044F831483B
:107230003149324A00F03FF831483249324A00F0D1
:107240003AF832483249334A00F035F83248334987
:10725000334A00F030F833483349344A00F02BF811
:1072600033483449344A00F026F83448344900227F
:1072700000F02CF833483449002200F027F8334856
:107280003349091A082902DB002202604160314AB1
:1072900090471F481F49884205D00268043003B454
:1072A000904703BCF7E700208646EC46002000210B
:1072B000294A9047FEE7884207D0521A05D0037842
:1072C00001300B700131013AF9D17047884202D088
:1072D00002700130FAE770470000042000E003204C
:1072E0000000042000000420AC150300382A002010
:1072F00054300020D0730200D0730200500003000D
:10730000AC150300382A0020382A0020C0010300F1
:10731000C0010300C0010300C0010300C00103005D
:10732000C0010300C0010300C0010300AC1503004D
:10733000C81B03005430002054300020543000207B
:107340009C4300209C4300209C4300209C43002041
:107350009C6300209D7302005DD90200FEE7FEE7FA
:10736000FEE7FEE7FEE7FEE7FEE7FEE7FEE7FEE7F5
:1073700000F002B8FFF7FCBF0F484FF00701884349
:1073800085460E4880470E48016841F4700101604F
:10739000BFF34F8FBFF36F8FFFF732BF09480A4922
:1073A0000A4A884207D0521A05D0037801300B7080
:1073B0000131013AF9D170470000042061AD0200AB
:1073C00088ED00E0C0010300382A0020382A0020A0
:1073D0007047000007B5044B0093044A402300F0B7
:1073E00032F803B05DF804FBF17302005530002061
:1073F0002DE9F84389461446B2B10F4B0F4E0325D1
:10740000002743F00108224609EB0701002006F09F
:1074100003FC0744241A48B933782BB14FF47A405F
:10742000C047013D02D13570BDE8F88301233370B8
:10743000002CE8D1F8E700BFC00103005430002061
:10744000704706F01DBCF0B595B01C4616460846C0
:107450000D4601F0B4FC1A9B0D93CDE9086400249D
:107460002346082205A928460A948DF82C400C943E
:1074700001F0C2FC079B0293069B03939DF8143016
:107480008DF8114003F00302012A1DD1BDF814400C
:10749000059EC3F3C203C4F383148DF81030A20019
:1074A00008230EA9284601F0A7FCC6F3952608ABD1
:1074B0000093224602AB0EA9304600F07BFB284623
:1074C00001F081FC15B0F0BD022AF8D1BDF81640DC
:1074D000C3F3C203A4098DF810300827082C2646F0
:1074E00028BF08263B4632460EA9284601F084FCF8
:1074F000A41B08AB02AA31460EA8374400F0BEFB1D
:10750000002CEBD1DBE7000008B5FFF79AFF042160
:10751000034800F0BDFA034B01225A7108BD00BFB9
:10752000B0010300382A0020037813F0040216D0BB
:1075300003F00303012B03D0022B09D00120704775
:107540000A6800880232C0F3831002440A60F5E73B
:107550000B684288023303EB92130B60EEE7104690
:10756000704700002DE9F04F87B000230446851CCA
:107570000DF107000F4690468DF8073000F038FFF8
:10758000454806683E60D0E90132134401339B1B35
:10759000824600F21C4600F5836900F21447AB42B4
:1075A0001BD30022B8F1000F70D0052363F307024C
:1075B00064F38912DAF80010DAF808309DF8070051
:1075C0000B4003330D444AF82320CAF8005000F062
:1075D00033FF012007B0BDE8F08F0121304601F0F4
:1075E00025F9484601F045F9384601F042F9DAF844
:1075F0000400DAF808B0029000EA0B0003300AEB4E
:10760000800002A9FFF790FF029B50BB0BEA030228
:107610000AEB820203F1020CD2680392013303EAFF
:107620000B0B0AEB8B0B02F00302012ACDF808C00A
:10763000DBF80C1022D0022A16D08346384601F01F
:107640001BF910B1029BCAF804305946304601F0CC
:10765000EDF8DAE901231344DAF8002001339B1A2C
:107660009DE70BEA0300C9E7BDF80E309B09033321
:107670004FEA114B0CEB93030293DFE7BDF80C309C
:10768000C3F383134FEA114B6344F5E7062363F317
:10769000070264F39F528DE7683100200B4B0C48C2
:1076A000FF2210B59A600022C3F81824C3E9002213
:1076B000C3F8142483F8202401F03AFB044610B9DF
:1076C000044801F0B9FC204610BD00BF683100201D
:1076D0001C010300E401030030B50A4C71B10A4AF1
:1076E0000A49121BD20800239A4201D1002030BD62
:1076F00031F82350854202D00133F5E7034654F8B0
:107700003300F4E7640003001C010300382A002062
:10771000094B013903EBC000032909D8DFE801F068
:107720000A020406042070470079704740797047C8
:10773000002070470220704764000300034BD3E928
:107740000030C31A58425841704700BF68310020CA
:107750002DE9F04387B0FFF7F1FF0646002840F01F
:10776000FB807E4DC5F81804BFF34F8F6868AC6886
:1077700002902040033005EB800002A9FFF7D4FE01
:10778000029B18B1D5F81824002A5FD004EA03023E
:10779000991C013305EB8202234005EB8303D26879
:1077A000DB68049302F00303022B0392029162D17F
:1077B000BDF80E306A484FEA9318B8F1500FC14631
:1077C00028BF4FF0500969F38F1309F10801ADF894
:1077D0000E3001F0C5FA0746002800F0A88001F03D
:1077E000EEFA03A900230822384601F0FBFA0299B9
:1077F00024EA01060136B600B14535D95FFA89F9A8
:107800007EB3F6B2A9EB0609214003315FFA89F491
:10781000B146544E05EB810108234A46384601F033
:10782000E1FA36B109F1080322463146384601F043
:10783000D9FA029B08F1030803EB98030293D5F8E9
:107840001834002B4BD1D5F810445BE02A689A42DB
:1078500004D86A60304607B0BDE8F08304EA03004C
:1078600088E740493446D7E72140033108234A4698
:1078700005EB8101DAE7012B59D1BDF80C3038480E
:10788000C3F38311062928BF062161F3891302314E
:107890008900ADF80C3001F063FA0746002846D0A5
:1078A00001F08DFA0023082203A9384601F09AFA64
:1078B0000026BDF80C20C2F38312B300964203F1F8
:1078C0000803BCD202994A1C21400331029205EB05
:1078D00081010422384601F085FA0136E9E738468D
:1078E00001F071FAFFF72AFF80F00100C6B2B1E79C
:1078F000E3685B7923B1236839461B6820469847C3
:10790000E3681C68002CF3D1384601F05CFA0DF1F5
:1079100007008DF8074000F06BFDD5F818340BB95F
:10792000029B6B609DF8070000F086FDDAE7D5F852
:10793000104454B90C4B0D480D49C01AC00800043E
:1079400040F0020000F06EF8CCE7236820469B6808
:107950009847E3681C68ECE700267BE76831002065
:107960001C01030074310020640003009400030034
:10797000F00103002DE9F74F284C80460F46924650
:1079800001A9012218469B46D4F80890FFF7EAFDAA
:1079900080B3019D0026A91C5E4506EB010233D190
:1079A00000211F4800F022FF80F310006A1C02EA49
:1079B000090204EB8202000405EA0903033340EAEA
:1079C0001840D06014F8232068F3C50204F823207F
:1079D00034F8232066F3891224F8232054F8232056
:1079E00067F39F2244F8232002F0F80242F00102DC
:1079F00004F8232094F820341BB1FFF7A9FE0028D7
:107A0000FBD103B0BDE8F08F09EA020204EB820269
:107A10005AF82630D3600136BEE700BF6831002037
:107A20008435002000231A46FFF7A4BF07B50123C1
:107A3000019201AAFFF79EFF03B05DF804FB07B5B2
:107A4000CDE9002302236A46FFF794FF03B05DF8F7
:107A500004FB1FB5CDE90123069B039301AA032371
:107A6000FFF788FF05B05DF804FB7FB5CDE9002383
:107A7000089B0293099B03930A9B04930B9B05931A
:107A80006A460623FFF776FF07B05DF804FB0000A7
:107A900030B50F49D1F81024002314463CB9C4680E
:107AA000237152B9C1F810042260184630BDE46851
:107AB00025799D4206D02468F0E7D26811682160DC
:107AC0001060F2E701330A2BE7D14FF0FF33ECE708
:107AD00068310020094A38B50123D2F8104482F8F1
:107AE00020341D4604B938BDE3685D712368204623
:107AF0005B689847E3681C68F4E700BF68310020C2
:107B0000037A052B10B50C460FD0437A23B1084AEF
:107B10000849204600F013FF0749204600F00FFFF8
:107B20002046BDE8104000F0FFBE002AF8D0F3E781
:107B30003B0203003A0B03005D020300C38873B5E8
:107B400004460D4633B1144A00921449144A28469B
:107B500000F0F5FE217A05291CD0637A4BB1A0888C
:107B6000FFF7D6FD0F4B104953F82020284600F0B0
:107B7000E6FE227A0D4BA08853F822600021FFF721
:107B8000ABFD0B4903463246284602B0BDE87040C3
:107B900000F0D5BE02B070BD3B02030048020300F6
:107BA00040020300080203003A0B03006C020300CA
:107BB000600203002DE9F04385B01F460C9D0023B1
:107BC00006460C46904695F80C902B73294638468D
:107BD000FFF7B4FFB8F1060F09D8DFE808F0041288
:107BE000181F283340003146284600F0A8FE002226
:107BF00029463846FFF784FF85F80C9005B0BDE8AC
:107C0000F08322683146284600F099FEEFE7D4E978
:107C100000233146284600F092FEE8E7A36800936F
:107C20003146D4E90023284600F089FEDFE7E36807
:107C30000193A36800933146D4E90023284600F05D
:107C40007EFED4E723690293E3680193A36800935F
:107C50003146D4E90023284600F071FEC7E7636986
:107C6000039323690293E3680193A3680093314669
:107C7000D4E90023284600F062FEB8E708292DE980
:107C8000F84F80460E4617461C463AD8002593F812
:107C90000C901D7319461046FFF750FFDFF884A0C3
:107CA000DFF884B0AE422ED918F805205946204698
:107CB00000F045FE0135082DF4D11849DFF86CB00D
:107CC000204600F03CFE4FF0000A564520D918F837
:107CD0000A507E2D03D8284607F004FD00B92E2552
:107CE0002A465946204600F02AFE0AF1010ABAF156
:107CF000080FEAD1012221463846FFF701FF84F838
:107D00000C90BDE8F88F5146204600F018FED1E7F0
:107D10000349204600F013FEE7E700BF36020300E8
:107D200034020300320203002C0203003802030075
:107D3000C30710B507D4F0234008054A145C23405C
:107D40001943115410BD0901C9B20F23F4E700BF54
:107D50005836002030B5094B1C78094B19680023B0
:107D60009C4202DC0022104630BD11F8335085429F
:107D700001EBC302F7D00133F2E700BF2436002045
:107D80007836002070B504460D46FFF7E3FF30B1AA
:107D9000436823B129462046BDE87040184770BDAE
:107DA000034B044819680022490800F032BA00BFAA
:107DB000283600203036002010B5C0B2FFF7CAFFC9
:107DC0000446007803F02CFC63785A1E534253415A
:107DD000834208D1044BD3E90023134303D1BDE808
:107DE0001040FFF7DDBF10BD5036002037B5430807
:107DF000364AD35CC2074CBF1B0903F00F0304468D
:107E00000D46042B36D8DFE803F003262D393D005C
:107E100081B30121FFF78CFF00230DF107008DF8DE
:107E2000073000F0E5FA0122A4F12003C4F120009C
:107E3000274902FA03F322FA00F0034302FA04F49A
:107E4000D1E9002014430343C1E900439DF8070032
:107E500000F0F2FA0EE0002918BF02212046FFF7D9
:107E600067FF07E041B10321FFF762FF01212046D0
:107E7000FFF788FF03B030BD0121EFE70029F9D1FA
:107E80000421EBE709B10321E8E7FFF751FF294699
:107E90002046FFF777FF0DF107008DF8075000F03F
:107EA000A7FA0122A4F12003C4F12000084902FA34
:107EB00003F322FA00F0034302FA04F4D1E90020AC
:107EC00022EA040420EA0303BEE700BF583600207C
:107ED000503600202DE9F041124E134F0024337824
:107EE000A34208DC114BD3E90023134318D0BDE8AB
:107EF000F041FFF755BF3D6805EBC40815F83400A5
:107F000003F08EFB98F801104B1E594259410A1A92
:107F1000514215F834005141FFF768FF0134DEE7A4
:107F2000BDE8F0812436002078360020503600204D
:107F3000092AF7B505460C4616463DD903F0A0FAC6
:107F4000D8B11E4B1E481D601E4B1F4F1C701F4B8F
:107F5000002120221E6007F053FC1D4B0020002151
:107F6000C3E90001013CE4B20326FF2C0BD1194AFE
:107F70001948002100F042F903E003F049FA002813
:107F8000DFD003B0F0BD20B29DF806308DF804605C
:107F900005EBC00223F007038DF8063001A99378A2
:107FA00015F830008DF805303A4603F073FA013CBD
:107FB000E4B20028D9D0E4E70720E2E778360020D1
:107FC0005836002024360020B97D020028360020D3
:107FD00050360020D57E0200CC02030070B5084D5B
:107FE000084E00242B789C4201D3002070BD3368DA
:107FF000012113F8340003F0C9FA0134F2E700BF9D
:1080000024360020783600201FB50021039001AAF5
:1080100044F20100CDE9011100F004F805B05DF86B
:1080200004FB000010B572B6FFF754FDFFF790FB9C
:108030000028FBD1104B114C1149E41AE408240428
:1080400044F00100FFF7EEFC0E4B1B68DB0700D588
:1080500000BE0D4944F00200FFF7E4FCBFF34F8F70
:108060000A490B4BCA6802F4E0621343CB60BFF3CA
:108070004F8F00BFFDE700BF6400030094000300C2
:10808000DB020300F0ED00E0E702030000ED00E09A
:108090000400FA05D0E90223D1E90201994208BFA0
:1080A00090422CBF01200020704700002DE90048BD
:1080B0000C4800F0F4FA0C4BD3E9002312EB000B50
:1080C00043F1000C094BD3E900239C4508BF9345BD
:1080D0005846614603D21BF180704CF10001BDE8A7
:1080E000008800BF402A002080360020F83600209B
:1080F00037B505460C460A4801A900F002FB60B1FD
:108100000570446001A9064800F025FB18B1054838
:1081100000F0CAFA002003B030BD0420FBE700BF26
:10812000E4360020402A0020194B1B782DE9304806
:1081300004461BB900252846BDE830880028F9D040
:10814000037F03F0FF05002BF4D0FFF7AFFFD4E966
:108150000223994208BF904215D3236903B92377BC
:10816000D4E90530984721690029E3D0237F03F043
:10817000FF05002BDED0D4E9022312EB010B43F103
:10818000000CC4E902BC2146024800F074FFD2E7AB
:1081900088360020F802030013B5114B1149186806
:1081A000019008235822104800F098FA044698B924
:1081B0000E4A0F4801A900F063F9044660B9012195
:1081C0000B4800F04FFA01230A4A0948194600F00B
:1081D000B5F9094B01221A70204602B010BD00BF4C
:1081E000F40203008C360020E43600205D82020099
:1081F000402A0020FFFF7F00883600203AB1036844
:108200005A614A1E514251411961002070470720AE
:10821000704738B5037F04460D4683B98261FFF786
:1082200045FF421941F10003C4E90223236903B168
:10823000256121460020BDE83840FFF759BF0020E6
:1082400038BD0023014603770120FFF751BF00002E
:10825000014800F024BA00BF402A00202DE9F04F69
:1082600085B0074600F006FA40B1594AD2E900311C
:1082700013F1807341F10001C2E900310021384659
:1082800000F007FA38B1534C236823B12068FFF798
:108290004BFF002323600121384600F0FAF920B19A
:1082A000FFF704FF4C4BC3E9000103A94B48494DBC
:1082B0004B4C4C4E00F05FFA002845D1DFF820A16E
:1082C000444CDFF828B1504600F0EBFE236800284C
:1082D00075D07BB12368D0E90201D3E9022399422A
:1082E00008BF90422DD223681B7F1BB121685046E6
:1082F00000F0C1FE504600F0CEFED0E90263054614
:108300000193FFF7D3FE019BB6EB000863EB010975
:10831000B8F1010F79F1000344DB334EB0453FD98A
:10832000FFF796FF82194FF496030021584600F09C
:1083300025F900283ED1236813B9384600F0F6F835
:10834000256005B0BDE8F08F0378012B1DD05BB12F
:10835000022B11D14FF0000A204600F09CFE0028AD
:1083600033D080F81CA0F7E741680B7F23B90123C5
:108370000B77204600F07FFE03A9184800F026FA8C
:1083800003A9164800F0F7F996E741682B6899426F
:1083900002D100232B60EFE7204600F085FEEBE7DB
:1083A000AA68C0E70021584600F069F92846FFF79F
:1083B000BBFE01E00D28F9D00023236083E7002BEA
:1083C000BFD1384600F0B6F8BBE701233370D3E7DE
:1083D0008036002000370020F8360020E4360020E8
:1083E000F802030088360020FFFFB400402A002076
:1083F00070B5EFF3108672B60C4A946801239CB9ED
:1084000093600B4B0B4DD3F8801029401160C3F8DB
:108410008050D3F8841051604FF0FF32C3F88420AD
:10842000047006B962B670BD0370FAE70437002025
:1084300000E100E0FC06FFBD084B9A6810B55AB198
:1084400050B9EFF3108172B6054A1C6814605C687D
:108450005460986001B962B610BD00BF04370020B7
:1084600000E100E0435882B03BB100234350435841
:108470000193019B012002B070471846FBE7000002
:10848000F8B5224B4679224D43F82620214A224B4B
:10849000F7009B1AEA19DB0812791B0432B143F08A
:1084A00002001E49FFF7BEFA0820F8BD02680C88DA
:1084B000C2F8084590F904208978002AA8BF02F183
:1084C000604CD4B2BABF04F00F0EDFF858C00CF500
:1084D000614C4FEA4111C9B2B4BF0CF80E108CF8D0
:1084E000001352090121DFF840C004F01F042F449B
:1084F00001FA04F44CF82240397145F83600084975
:1085000043F00300FFF78EFA0020CEE71837002073
:108510001037002064000300A400030016030300CA
:108520003803030014ED00E000E100E003680122DD
:108530001A607047036801225A60704773B501F1F1
:108540005005AD000068ADB24FF480348C40002679
:10855000C0F80843C0F84843465101F5A871455991
:10856000019522F07F42019D40F82120C0F844434C
:108570000BB1C0F8044302B070BD00002DE9F74F05
:10858000884699464FF48036036808F150058E40BE
:108590004FEA880AAD00C3F84863ADB2C3F8086378
:1085A000074603EB0A00D3F804154FF0000B22F046
:1085B0007F44D0F84025C0F8401543F805B05B591A
:1085C0000093009B531A23F07F43012B0BD1244BC4
:1085D0004FF4806043F0010398473B6843F805B0CF
:1085E0005B590193019B3868D0F80455C0F8446387
:1085F000631B23F07F43012B1AD108F5A878184B91
:10860000013440F8284043F001034FF4806098475C
:108610003B68D3F804359D4208D13B680020C3F87D
:108620004463C3F8046303B0BDE8F08F0D20FAE79C
:108630008244C9F1FF19CAF84045D0F80435E21A5E
:10864000013A22F07F4209F57F499145EED3002A95
:10865000E3D10134CAF84045D0F804259342DBE762
:108660001003030003680222C3F8442309B1C3F8CE
:10867000042370474FF482710068FFF7F3BE4FF494
:10868000803303FA01F10368C3F84813C3F80813F1
:1086900070475031890089B20068FFF7E3BE036874
:1086A000D3F804057047000090F9043001215A09FD
:1086B00003F01F0301FA03F34032024941F822306C
:1086C000704700BF00E100E0024B034A1B681068DE
:1086D000184700BF183700201037002010B561B1CF
:1086E000B2FBF3F403FB1424A4B244B9C0E90014B0
:1086F00084608281C381204610BD0E20FCE70920E2
:10870000FAE737B550E8013F9DB2C4892544848912
:10871000A54228BF2D1B0489A54202BFBFF32F8F9E
:10872000002207E0C5EA030540E80154002CE9D126
:108730004FF001028DF803200193019B9DF8032067
:108740000B6002F0FF0322B10B880068184403B0ED
:1087500030BD1846FBE70A884B889A4209D150E899
:10876000012FC2EA024240E80123002BF7D1012089
:1087700070470020704737B550E8023F1FFAA3F555
:10878000C488A54202BFBFF32F8F00220DE0C48929
:1087900025448489A54228BF2D1BC3EA054540E82E
:1087A0000254002CE8D14FF001028DF80320019310
:1087B000019B9DF803200B6002F0FF0322B14B8860
:1087C0000068184403B030BD1846FBE70A884B88A0
:1087D0009A4209D150E8022FC2EA224240E802231D
:1087E000002BF7D1012070470020704750E8002F80
:1087F0000B4640E8003C9CF0000FF7D11046704754
:1088000050E8003F43EA010240E8002C9CF0000FD2
:10881000F6D11046704750E8002F02EA010340E805
:10882000003C9CF0000FF6D11046704750E8003F26
:1088300003EB010240E8002C9CF0000FF6D110463B
:10884000704750E8003FA3EB010240E8002C9CF089
:10885000000FF6D11046704750E8003F8B422CBF06
:108860005A1A1A4640E8002C9CF0000FF4D110462A
:1088700070470121FFF7C4BF0021FFF7CCBF10B53F
:1088800090B1D0E9012301689B1ADBB20A60013B79
:10889000DBB2FF2B026802D10020107110BD1168FD
:1088A0004C1C14600B70F2E70E20F7E737B5054655
:1088B00000240DF107008DF80740FFF799FD2A68A5
:1088C0006B68116899420ED9481E106011F8014C6E
:1088D000EB68298A01FB0434AB6811791B1ADBB2FF
:1088E000994238BF13719DF80700FFF7A5FD204698
:1088F00003B030BD37B5054600230DF107000C4627
:108900008DF80730FFF774FD2A681368591C116051
:10891000E968641A298AB4FBF1F41C709DF8070019
:10892000FFF78AFD03B030BD826810B504462AB156
:1089300043690168006998470023A36010BD0EB425
:1089400003B5039921B104AB01AA019300F074F8B7
:1089500002B05DF804EB03B070470A2938B504464D
:108960000D4602D10D21FFF7F8FFA3682268591CBC
:10897000A160D554D4E901329A4204D32046BDE81F
:108980003840FFF7D1BF38BD2DE9F84F9946DDE9F2
:108990000A431746824688460A460126BA420FD243
:1089A0004E4538BF4E4613F0010B01D164B9002487
:1089B0000125B9F1010F1AD909F1FF397D43F8E713
:1089C000B2FBF7F20136E9E79B070ED5B9F1000FCC
:1089D0000CBF30252025A642EAD2013C294650464C
:1089E000FFF7BBFF002CF6D1E1E72025F3E7B8FB4A
:1089F000F5F39F42E2D9DFF83C90B8FBF5F350461F
:108A000019F8031005FB1388FFF7A7FFB5FBF7F371
:108A1000BD4207D2BBF1000F02D00CB1A64203D376
:108A2000BDE8F88F1D46E8E720215046013CFFF7DE
:108A300094FFF2E74A0303002DE9F74F0546174676
:108A40008846002900F0308118F8011B49B92B7BBA
:108A5000002B00F02981284603B0BDE8F04FFFF756
:108A600063BF252940F0C080002698F800302D2BE8
:108A7000424608F1010823D0302B24D02B2B25D0DF
:108A800000242A2B02F1010123D13B681A1D1B6827
:108A90003A601C440A4613782E2B26D101324FF03F
:108AA0000009104610F8011BA1F1300CBCF1090FB0
:108AB0001DD80A2303FB0913A3F130090246F0E78E
:108AC00046F00106D1E746F00206CEE746F004067E
:108AD000CBE711F8013CA3F130000928DBD80A22CA
:108AE00002FB0434303C0A46CBE74FF0000912F891
:108AF000011B01F0FB0068289046F8D069290ED0D0
:108B00004AD8582964D006D825296DD098F8003065
:108B1000002B99D19BE7632962D06429F6D13A688A
:108B2000D2F800A0111D8AEAEA723960A2EBEA725B
:108B30004FF0010B092A5BDCCB4538BFCB462CB18B
:108B4000BAF1000F01DB720700D5013CB30702D573
:108B5000B9F1000F04D0F00702D4002C4ED100244C
:108B6000BAF1000F52DACAF1000A2D212846FFF7A8
:108B7000F4FE06F00302022A05D1B9F1000F02D17A
:108B8000002C47D10024CDE900464B460A2251462D
:108B90002846FFF7F9FEB9E773294CD014D870299D
:108BA000B4D13B681A1D3A60302128461C68FFF793
:108BB000D4FE78212846FFF7D0FE00220823CDE915
:108BC000003221461022E3E775292BD078299DD168
:108BD00039680A1D3A60CDE900464B46102228E06C
:108BE0003B681A1D19783A602846FFF7B6FE8DE7F4
:108BF0000A230BF1010BB2FBF3F29BE7A345AFD2C3
:108C000020212846013CFFF7A8FEA6E77107B0D552
:108C10002B21ABE7A345B6D230212846013CFFF714
:108C20009CFEADE73968CDE900460A1D3A604B4627
:108C30000A220968ACE73B681A1D3A6016F0010683
:108C4000D3F800A020D1BAF1000F03D0504606F0AF
:108C50002CFE0646B44200D9C4B90AF1FF3A1EE020
:108C600028460136FFF779FE1AF806100029F7D1D9
:108C7000A642BFF44BAF002C3FF448AF202128465A
:108C8000013CFFF76AFEF3E70026EDE720212846C6
:108C9000013CFFF762FEDDE72846FFF75EFE1AF8AB
:108CA000011F0029F8D131E703B0BDE8F08F2DE9AD
:108CB000F047B0F806904479D2F800A09DF82080E3
:108CC00009FB04F4043C06460AEB0300A0420F46ED
:108CD00088BFA4EB030A191DC2F800A0B1FBF9F587
:108CE00009FB15114DB9A9EB0104544528BF5446A1
:108CF000BAF1000F04D1BDE8F0873668013DF1E715
:108D000004317B1970182246B8F1000F0ED00146CD
:108D10001846AAEB040A06F04AFDD14525443668F8
:108D20004C464FF0000128BF5446E1E71946F0E7F2
:108D3000FFF7A5BDF8B546790146721E054600232A
:108D400093422D6803D30024A64202D8F8BD013314
:108D5000F6E70F682846FFF7CDFD01343946F3E703
:108D60002DE9F843068ACD1C0746FFF79FFD043E18
:108D700035440446B5FBF6F5F0B14FF48073EDB21F
:108D80008380C680013D076081464FF00008A845FA
:108D900012D23846FFF78AFD064648B1637901339F
:108DA000637108F10108C9F8000007608146EEE729
:108DB0002046FFF7BFFF34462046BDE8F883012177
:108DC0000430FFF733BD10B5012104460430FFF72E
:108DD00038FD10F0FF0F04D12046BDE81040FFF72A
:108DE000A9BF10BD1FB503920022009203AAFFF78E
:108DF0005EFF05B05DF804FB1FB5039201220092EF
:108E000003AAFFF754FF05B05DF804FB33DF70479A
:108E100070B5264C054601212046FFF7E7FCBFF35D
:108E20005F8F264638B9042D0AD0214B1A781AB123
:108E3000BFF35F8F206070BD1E4A157001221A704B
:108E40001D4C1C4D6368BBB9FEF744FEFEF780FC69
:108E50000028FBD1174B1B78023B012B14D8BFF322
:108E60004F8F1649164BCA6802F4E0621343CB6079
:108E7000BFF34F8F00BFFDE71B682878984788B184
:108E8000204600F0ECF8DDE706F0AAF908B1FFF79C
:108E9000BDFF4FF080430122C3F80025BFF34F8F81
:108EA00020BFFDE7BFF35F8F3060C4E728370020A5
:108EB00025370020243700201C37002000ED00E07B
:108EC0000400FA05026813685268934291BFD01AF1
:108ED00080680130801888BFC01A704703688168B5
:108EE0001A685B688B4234BF01330023D31A58429F
:108EF00058417047F7B5002304460DF107000D46B1
:108F00008DF80730FFF774FA2046FFF7E7FF10B13E
:108F1000237C002B3CD12268A66853685168B1427B
:108F200034BF01310021516030B11168A068814225
:108F300034BF013100211160E2686068511E0729C9
:108F400020D8DFE801F004101F141F1F1F182A7813
:108F5000C2542046FFF7B6FF23689A68824200D2C7
:108F60009860002415E02A8820F81320F1E72A6889
:108F700040F82320EDE7D5E9006700EBC300C0E926
:108F80000067E6E7294602FB030006F010FCE0E775
:108F900004249DF80700FFF74FFA204603B0F0BD08
:108FA000036818685B68C31A58425841704773B524
:108FB000002305460DF107000C4616468DF80730D4
:108FC000FFF716FA2846FFF7EBFF002832D1296891
:108FD0000B682EB90A68A868824238BF561C0E601A
:108FE000EA686968501E07281ED8DFE800F0040E02
:108FF0001D121D1D1D16CB5C237000249DF807005B
:10900000FFF71AFA204602B070BD31F81330238002
:10901000F3E751F823302360EFE701EBC301D1E917
:109020000023C4E90023E8E703FB0211204606F011
:10903000BEFBE2E70524E1E7836800225A609A60FC
:10904000C3E90422DA601A6070470B684A6843601B
:10905000934208BF0023016008BF43607047436824
:1090600043B10268916852680B449342436004BF65
:1090700000234360704770B5446806460D4620687B
:1090800018B1B3682946984718B923682B60256042
:1090900070BD2468F3E74368186808B102681A6075
:1090A00070474368186870474368186800B970478C
:1090B000884203D102681A600120704703460068A5
:1090C000F4E7000010B50D49A1F59472914201D862
:1090D00000200FE08B1ADB1003EBD3735B1002EB65
:1090E000C30452F83330834205D802D204F1080297
:1090F000ECE7606810BD2146E8E700BFA804030064
:1091000008B5FFF7DFFF024B002808BF184608BD6F
:109110006C030300C36903B118477047036800225A
:109120001A845A62DA62C3E91E22C3E9202203F1DB
:1091300034025A677047CA699A4210B543600CD32B
:109140008C690460086FD21A18441C440867101C0C
:109150008C61CA6118BF012010BD01F128020260B4
:109160008B670020F8E70000F0B5BB4D0C7A2C703F
:109170000468B4F5517F00F0CA8200F2DA8040F250
:109180002636B44200F03E826DD840F21636B44224
:1091900000F0FB8126D840F21336B44200F0DA81A9
:1091A000B4F5457F0BD2002C00F0C28140F212369C
:1091B000B44200F0C581002303601846BFE100F00F
:1091C000D78140F21536B442F5D100240AB10679B0
:1091D0001655013402269C420671C0F0D78140F238
:1091E0001633AAE140F21936B44200F0E78114D8F0
:1091F00040F21736B44200F0D481B4F5467FDAD19C
:1092000000240AB106791655013400269C420671E5
:10921000C0F0D58140F219338FE1B4F5487F00F0FA
:10922000E48140F22136B442C5D100240AB1067966
:1092300016558A4E0F7A3678DFF824C2B74204F109
:10924000010440F2548301F1090706EB460607EBDF
:10925000060E9C42BE5DCCF800E00671C0F0D381E2
:1092600040F2263369E140F23336B44200F009821D
:10927000B4F54D7F38D2B4F54B7F00F0DE811CD8B9
:1092800040F22736B44200F0C981B4F54A7F92D14A
:1092900000240AB106791655714E0F7D366836786E
:1092A000B74204F1010440F0E18102269C420671BC
:1092B000C0F0C4814FF44B733FE140F22D36B4420D
:1092C00000F0C78140F22E36B4427FF474AF002420
:1092D0000AB10679165501340026A342067100F240
:1092E000EA814FF44F7328E1B4F54F7F00F0E2813B
:1092F00006D8B4F54D7F00F0D08140F23536E3E773
:1093000040F24236B44200F0EA8100F2F48140F2C9
:109310004136B4427FF44FAF00240AB106791655A6
:10932000013424269C420671C0F0DA8140F24233B7
:1093300003E140F25636B44200F053826AD8B4F5E5
:10934000537F00F01C8232D840F24936B44200F01C
:10935000FD8115D840F24536B44200F0E481B4F501
:10936000527F7FF428AF00240AB1067916550134E4
:1093700024269C420671C0F0EA8140F24933DCE0C9
:1093800040F24A36B44200F0ED8140F24B36B4422E
:109390007FF411AF00240AB10679165501348E7D91
:1093A00006719C42C0F0EC814FF45373C5E040F26B
:1093B0005136B44200F0FC8115D840F24F36B44229
:1093C00000F0E981B4F5547F7FF4F5AE00240AB1D2
:1093D00006791655013402269C420671C0F0E981D7
:1093E00040F25133A9E040F25236B44200F0EC8131
:1093F00040F25536B4427FF4DEAE00240AB106795D
:109400001655013424269C420671C0F0EB8140F2CF
:10941000563392E040F27236B44200F0278246D8CA
:1094200040F25936B44200F0F5811BD840F257366D
:10943000B44200F0E281B4F5567F7FF4BCAE002464
:109440000AB10679165501348E7D06719C42C0F032
:10945000E28140F2593370E02E3700202D37002092
:109460003037002040F26D36B44200F0F28140F215
:109470006E36B4427FF49FAE00240AB106791655C9
:10948000AF4EB04F36683F7896F801C0BC4504F146
:10949000010440F2318296F802C03E449C4216F824
:1094A0000C600671C0F0E38140F2723345E040F297
:1094B0008336B44200F0FA81B4F5617F14D240F2F1
:1094C0007736B44203D0B4F55F7F7FF474AE0024E6
:1094D0000AB10679165501344026A342067100F2FE
:1094E000E68140F2833328E040F28936B44200F04E
:1094F000F48140F28E36B44200F0EF81B4F5617F22
:109500007FF459AE00240AB1067916558C4E0F7DB2
:1095100036683678B74204F1010440F0D4810E6A0F
:109520009C4236780671C0F0D98140F2893304E05C
:109530000824047123B940F2123303600120F0BD06
:109540000AB1047914700B24012B04710ED840F277
:109550001333F2E700240AB10679165501340E7D63
:1095600006719C4205D34FF44573E6E70124F2E708
:1095700000240AB106791655013402269C42067170
:10958000FFF424AE40F21533D7E700240AB1067980
:109590001655013402269C42067103D340F217335C
:1095A000CBE700240AB10679165501344E7E0671C8
:1095B0009C42FFF426AE4FF44673BEE700240AB186
:1095C00006791655604E0027013437705E4E3778A5
:1095D0002E78B74202D340F29933AEE70926A34270
:1095E000067103D84FF44873A7E700240AB106793F
:1095F0001655013404269C420671FFF417AE40F262
:1096000021339AE700240AB1067916550134002661
:109610009C42067103D340F227338EE700240AB13F
:1096200006791655464E36680134767806719C42A6
:10963000FFF42FAE4FF44A737FE700240AB1067996
:109640001655013402269C42067103D340F22D3395
:1096500073E700240AB10679165501344E7E06716F
:109660009C42FFF435AE40F22E3366E78F7DB74261
:109670007FF432AE0A269C42067103D340F23333A4
:109680005BE700240AB106791655013400269C4296
:10969000067103D34FF44D734FE700240AB10679E6
:1096A0001655013400269C420671FFF411AE40F2BB
:1096B000353342E700240AB106791655204E0F7D56
:1096C00036683678B74204F1010440F0A8800526D8
:1096D0009C420671FFF421AE40F241332DE7002495
:1096E0000AB106791655013400269C42067103D34F
:1096F00040F2433321E700240AB1067916550134BC
:1097000010269C42067103D34FF4517315E70024D1
:109710000AB106791655013401269C42067103D31D
:1097200040F2453309E700240AB1067916550134A1
:1097300005269C420671FFF417AE4FF45273FCE607
:10974000303700202F3700202D37002000240AB1A9
:1097500006791655013401269C42067103D340F266
:109760004A33EAE600240AB1067916550134032685
:109770009C420671FFF40FAE40F24B33DDE600244D
:109780000AB106791655013404269C42067103D3AA
:1097900040F24F33D1E600240AB106791655013460
:1097A00024269C420671FFF412AE4FF45473C4E6B3
:1097B00000240AB106791655013402269C4206712E
:1097C00003D340F25233B8E600240AB106791655A5
:1097D000013405269C420671FFF410AE40F2553369
:1097E000ABE600240AB106791655013406269C42E0
:1097F000067103D340F257339FE600240AB106797D
:10980000165501340E7D06719C42FFF419AE4FF4DB
:10981000567392E600240AB1067916550134374E84
:1098200036687778364E3770364E00273770354EAB
:109830003778334E3678B74204D3334F3E7801360B
:109840003E70C3E60726A342067103D840F26D338B
:1098500073E600240AB106791655013405269C42A8
:109860000671FFF40AAE40F26E3366E600240AB1D8
:1098700006791655214E0F7D36683678B74204F1C9
:10988000010407D103269C420671FFF421AE40F289
:10989000773352E68F7DB7427FF41EAE02269C429C
:1098A0000671FFF415AE4FF45F7346E600240AB16B
:1098B00006791655013400269C420671FFF423AE4A
:1098C0004FF4617339E68F7DB7420BD100269C427D
:1098D000067103D340F28E332FE600240AB10679D5
:1098E00016550134074F3E7801363E709FE700233E
:1098F000CCF800301B78FFDE0023FBE73037002078
:109900002C3700202F3700202D37002010B50446BB
:1099100058B90868037B202B09D100F10E010722FA
:10992000183005F044FF204610BD0320FCE7062058
:10993000FAE7037A012B08D9427B012A00F10C03D4
:1099400006D9827B13445878704700235B78FFDE8A
:1099500000231B78FBE700002DE9F0470B7888B067
:1099600006460D460E2B17D8DFE803F00A080A0A50
:10997000160CA3161608160A0A0A0A00FFF7CEFBF1
:10998000002427E04A78D1094FEA521330D013F06F
:10999000030303D0012B21D006241BE002F01F0299
:1099A000012AF9D1AC78062CF6D105A8039300F072
:1099B000A5FC03AB009307460346EA7829793046B5
:1099C00000F0A0FD052805D0039A3946681C00F078
:1099D0002FFA0446204608B0BDE8F087AB78212B6B
:1099E000DAD1B5F80720072AD6D101681831EDE79A
:1099F000012BD1D1AB780768202B36D0222BCBD1CD
:109A0000B5F80730002BC7D197F82020B5F8033000
:109A10003B8402F0010203F001039A429CB2AFD0F2
:109A2000002C14BF02210321FFF774FB002CA7D1E7
:109A3000337A012B40F2D080737B06F10C02002BAD
:109A400000F0CC80B37BD05C02F07AFE3046FFF7AA
:109A500070FF02F075FE07F134037C62FC62C7E917
:109A60001E44C7E920447B67B4E7B5F80730072BED
:109A700092D14FF4E462BA8100240DF10B000E374D
:109A8000CDE9057307948DF80B40FEF7B1FC204635
:109A900005A900F0F9FE044630B9524B03A9CDE9FF
:109AA000033600F0B3F904469DF80B00FEF7C4FC42
:109AB00090E7037A002B00F09380837A00F109018C
:109AC000002B00F08B80C27AAB788A5C9A423FF41C
:109AD00057AF1B06EC780AD524B1032C0CBF002429
:109AE000032477E701213046FFF714FB72E7012CCE
:109AF0003FF446AF67B2002FEFD10568FFF719FFBB
:109B0000394BAC6A059305F10C0381460693BCB949
:109B1000EB6FAC67C5E91F43EB6A73B105F12C022B
:109B200092E8030005F1240383E80300EC6205A931
:109B3000484600F0BDFE044600E06C620021D2E71A
:109B4000D5F884A0686A544528BF544605F1340806
:109B50002246414605F02BFEEB6F2344C5E91F73F7
:109B6000AAEB0403AB67EB6A44446C672BB305F1C3
:109B7000240405F12C0898E8030084E80300AB6F87
:109B8000EF62686A1BB96B6A002BD0D116E0AA6A33
:109B9000696F9A4214D805F00AFEAB6AAA6FC5F83D
:109BA0008030D21AAA676A6F1A446A670021304669
:109BB000FFF7B0FAEB6A002BDDD16B620024BDE742
:109BC0001A4605F0F4FDAA6FAB6AEA679B1AAB620E
:109BD0006B6A13446B62D6E76378FFDE1B78FCE7A1
:109BE0005B78FAE70D990200379102001FB5036810
:109BF0001B8CDC0714D5037A012B13D9437B00F1AE
:109C00000C0493B1837BE05C9306CDE901120CBF99
:109C10000123002301A9039300F036FE04B010BD18
:109C20000820FBE700235B78FFDE1B78FCE7036876
:109C3000D3F8800070470000F7B50468238CDB0779
:109C40000F4616463BD5656A002D32D1A16F914271
:109C50000ED3616F384605F0AAFDA36FC4F880608B
:109C60009B1BA367636F33446367284603B0F0BD53
:109C7000C4E90972FFF75DFE134B009304F10C0376
:109C80000646019369B10A463846616F05F08FFDBB
:109C9000A36FA26AD21AA262626AC4E91E531A446E
:109CA00062626946304600F003FE002808BF922039
:109CB000DCE7E36A2BB9C4E90B129220D6E708204F
:109CC000D4E71120D2E700BF37910200002070478F
:109CD0002DE9F04F4B6885B082460C4600925BB987
:109CE0000B681B681B683BB98D682DB9C0E900552E
:109CF000284605B0BDE8F08F02F0BEFB009BE76888
:109D00009F4228BF1F464FF0000904F1100383460D
:109D10004E46012501934FB3A3686168BB42984644
:109D200028BFB84629B342460BEB060005F03FFDBD
:109D300000236360A268E368A2EB0802A3EB0803B8
:109D4000A260E360A7EB0807464402BBB9F1000F2D
:109D500003D02268126812682260D3B12368D3B995
:109D600063601EB1009BB34288BF0025CAE900B6FC
:109D7000BEE7002BDED0216801984B680BEB060292
:109D8000D3F804904346C8474FF00109D2E7002BAF
:109D9000C1D10025BFE70023029321684B68002250
:109DA000D3F8048002A80123C04708B92061B2E7B4
:109DB000A3680133A360F0E7084B1A7882420CD005
:109DC000052818BF064A187018BF137805481CBF2D
:109DD00023F00203137000F0FBBD704740370020F2
:109DE0005C3700209008030008B5002000F0ECFC70
:109DF0008020BDE8084000F0E7BC08B5002000F076
:109E0000F1FC8020BDE8084000F0ECBC38B5054608
:109E10000C4602F0D5FBA84205BFD4E90001034B74
:109E20001020C3E9000108BF002038BD60370020C2
:109E30007FB5C38893421D4628BF154693420E4600
:109E4000144625D9802002F051FAB4FBF0F303FB4D
:109E50001040B0FA80F04009002303900DF1030098
:109E60008DF80330CDE90165FEF7C2FA01A9802023
:109E700000F00AFD044620B906498020FFF7C6FF1E
:109E800004469DF80300FEF7D7FA204604B070BDE3
:109E90000020E1E7C40803002DE9F04F0C78062C00
:109EA00087B00E4600F0FC8120D8022C3DD003D8AC
:109EB000012C32D00624EDE1032C32D0052CF9D14F
:109EC0000DF10D00B24D8DF80C4002F00FFB002398
:109ED0002B609DF80D3003F01F07032F00F28881DF
:109EE000DFE817F02D0022017D0165000D2C00F048
:109EF000C58107D80B2C18D00C2CDBD10020FFF724
:109F00005BFF12E00E2C00F0C981852CD2D1A14B51
:109F10001B78032BCED1042000E00320FFF74CFF79
:109F2000C8E79D48FEF7A8FC08B90024B2E19B4BA6
:109F300001221A60BFF36F8FBFF34F8FF5E7C3F3B2
:109F40004116A6BBDB099DF80E1000F0A68006297D
:109F500016D0082900F0948049BB914C022220467B
:109F600005F04EFC237843F0010222708D4A1278EE
:109F7000920744BF43F003032370022288490EE096
:109F80009DF81030022B16D0032B69D0012B0ED177
:109F9000BDF81330002B00F06E81834912220DF1C1
:109FA0000D00FFF745FF0446062C40F0298103A869
:109FB00000F058FC11E1BDF81330002B00F05B817C
:109FC000092B28BF0923984600F00EFC4FF0090921
:109FD00004467CBB724C75494246204605F0E7FBBF
:109FE0002771A4F8029000F0E7FB18B1E37943F081
:109FF0002003E37100F0F8FB6D4BC3E90004C3F8E4
:10A000000880BDF81320DA6001A800238DF8043021
:10A01000FEF7EEF96749802000F04AFC044620B9BB
:10A0200065498020FFF7F2FE04469DF80400FEF724
:10A0300003FAB9E701964FF0000A63680022D3F8EB
:10A0400004B02146012301A8D84730B9237A1F4420
:10A050002368D144FFB21C68BBE70AF1010AECE7B0
:10A06000BDF81330002B00F00681BDF811109DF8EB
:10A070000F0000F029FE0146002898D002788EE7F4
:10A08000444A1278052A03D1454A1370012275E724
:10A09000042A8CD1424B1E70F8E7032910D00929FD
:10A0A0002CD0012983D1BDF80F30012B7FF47FAF75
:10A0B00000F082FB60B13B4A137823F002030FE00B
:10A0C000BDF80F30012B7FF472AF00F075FB18B9AB
:10A0D0000F2402F072FADDE0324A137843F00203F3
:10A0E00013702B68002B00F0C68002F069FA04465A
:10A0F00000287FF41AAF02F01FFACBE0254B1B7843
:10A10000043B012B01D90824E3E79DF80F302BB95C
:10A1100000F04AFC0420FFF74FFEE2E7012B55D187
:10A1200000F02EFC0520F6E701A99DF8110000F0D3
:10A1300061FB074608B91024CBE703AA9DF8041079
:10A1400000F070FB062804465AD19DF80D2012F04D
:10A15000600FBED10F4B9DF8041018789DF80E309B
:10A16000D6092BD073B10A2BB3D10528CBD13846F1
:10A1700000F000FC0A49324608700DF10D00FFF7AF
:10A1800057FE2AE00528BED105490B800222F4E7DC
:10A190006037002040370020683700205C700240A4
:10A1A0006C3700205C370020B008030091080300E2
:10A1B00044370020DC080300C40803000B2B88D1BF
:10A1C0000528A0D1BDF80F30FF2B01D9072480E767
:10A1D0009DF80F20384600F07FFB044610E09DF804
:10A1E0001100070706D19DF80D3013F0600F0BD05A
:10A1F00006246EE703A900F018FB06280446F2D0F7
:10A20000002C3FF46EAF64E79DF80E20364B9DF8AE
:10A2100011401B78012A1CD082B1032AE8D1200703
:10A22000E6D4BDF80F20002AE2D1052B02D0210789
:10A230007FF469AF204602F023F952E7052B02D0E4
:10A2400026077FF460AF204602F026F927490880F0
:10A250009CE72207CCD4BDF80F20002AC8D1052BDB
:10A2600002D023077FF44FAF204602F02FF920469B
:10A2700002F068FC35E702F09DF956E64FF08043A6
:10A28000D3F8384414F0010401D0022037E601204D
:10A29000FFF792FD204607B0BDE8F08F01202EE6C3
:10A2A000C8780328F6D0124D2B68D3B100222A605B
:10A2B00069689847044600287FF40BAF2B6823B1E8
:10A2C000B378002B7FF431AE15E70A4B1B68082BDF
:10A2D00004D1094B1B68002B3FF427AE02F06AF94A
:10A2E000D8E70E24F5E600BF403700206C37002089
:10A2F00060370020300100103401001008B1402305
:10A3000003600148704700BF6C37002043681B683A
:10A3100018470000024B5B6803B11847704700BF45
:10A32000B0370020020600F00F034CBF024803487C
:10A33000DB001844704700BFBC3700200438002001
:10A3400008B5FFF7EFFF016009B14B68196841607C
:10A3500008BD0000024B01465A681868104700BF4C
:10A360000438002038B5831EDBB2062B98BF1A4A8A
:10A370001A4C98BFD25C2378A3F10203DBB288BFEA
:10A380000022062B9ABF1449CB5C0023934205465A
:10A3900003D0B2B1124800F00FFF022D14D0A5F186
:10A3A0000800424242412378022B0FD0A3F108015A
:10A3B0004B424B41934202D052B101F043FF257012
:10A3C00038BD00F033FFE8E70122ECE70123F1E7B5
:10A3D00001F02EFFF3E700BFE40803007C39002002
:10A3E000482A00200378052B73B504460CD1304A67
:10A3F000D2F88434D2F8802412F0FF0F04D12D4A11
:10A40000DBB2052B08BF144623782BBB2A4B1D68F3
:10A41000DDB98DF80450294D01A8FDF7E9FF2A6840
:10A4200012B9274B62881A8001212448FEF7FEF9F1
:10A430009DF80400FEF700F8224B1B6813B10121C0
:10A44000204698472B6802B070BD2B6860889B68D7
:10A4500098472B685D68DBE701A91B48FEF751F9B7
:10A4600005460028EFD02368036000260DF10300A5
:10A470008DF80360FDF7BCFF114B10481B88026884
:10A4800001339B1AEB803146FEF7B0F9A8809DF8A6
:10A490000300FDF7D1FF01A90B48FEF75CF9094B5A
:10A4A0001B680146002BCED020469847CBE700BF63
:10A4B00000700240FC080300703900207839002049
:10A4C0004C380020B037002058390020FFF78ABFF1
:10A4D000012806D010B1022805D070470348FFF7C5
:10A4E00081BF0348FBE70348F9E700BFF00803001A
:10A4F000F4080300F80803000148FFF773BF00BF2A
:10A50000000903002DE9F04F87B000260546894673
:10A510009246984602966B6800225C6829460123A1
:10A5200002A8A04740B98DF80600049004460746EB
:10A53000BE4203D805202AE00136ECE76B680DF136
:10A540000602D3F804B02946012304A8D8476B6853
:10A550000DF10702D3F804B02946012304A8D84717
:10A560009DF807304B459DF8063015D1544511D163
:10A57000109A136088F8003088F801906A68023BEE
:10A580005468294608F1020204A8A047002007B039
:10A59000BDE8F08F0134E4B26A68023BD2F804B03F
:10A5A0002946002204A8D8479DF806301F44BFE77B
:10A5B0002DE9F743082305464FF484722F493048AC
:10A5C000FEF78CF8002856D12E4801F051FE0446C3
:10A5D000002835D12C4B18702C4B18602C4B0146A1
:10A5E000186048222B4805F00BF9482221462A48DA
:10A5F00005F006F9294B3DBBC3E900551D7200204B
:10A6000002F02CFB18B1852801D0FDF7FDFC244E8B
:10A6100096F80890002506F10908ECB2A14504D986
:10A6200004EB440414EB080423D10B2301A91C48B8
:10A630008DF80430FFF76AFE044608B101F0B8FC5B
:10A64000204603B0BDE8F08395E8070083E80700E3
:10A65000D5E73146E05CFFF773FE6378FAB29342C8
:10A6600005D9A3781344DC4207F10107F1D1013584
:10A67000D3E70027F1E70324E2E700BF4E380020CC
:10A6800058390020CDA402007C3900206839002010
:10A690006C390020BC37002004380020B03700207F
:10A6A0008008030010B501F079FD10B908231846A1
:10A6B00010BD01F07BFD04460028F7D1044802F0EC
:10A6C00000FB03460028F2D0FDF79EFC2346EEE790
:10A6D000EC08030001F076BC02F06CB94FF0804347
:10A6E000D3F83824920702D50348FFF77BBED3F88E
:10A6F0003824D107F4D470470109030007B5822339
:10A7000001A88DF80430FFF76DFE03B05DF804FB7F
:10A710002DE9F74300F1090490F80890064600255A
:10A720002746EBB24B4532D224B394F80180002186
:10A7300006E0E05CFFF7F6FD03680131002B37D13E
:10A74000CBB2984503D9A3780B44DC42F1D1013553
:10A750000334E6E73146E85CFFF7F2FD6B785FFA19
:10A7600088F2934205D9AB781344DD4208F1010821
:10A77000F0D10134337AE5B2AB4203D905EB45059C
:10A780007D1901D10B4B05E04FF00008E6E70024EE
:10A79000F0E713681A68002AFBD11E6001A90B2399
:10A7A00030468DF80430FFF7B1FD03B0BDE8F0830B
:10A7B0001120FAE768390020024B1878003018BFE2
:10A7C0000120704774390020030710B5044604D4F3
:10A7D00001F07CFE204602F0B5F92046BDE81040AD
:10A7E00002F060B902F02CB9014B1868704700BF45
:10A7F00068390020F0B50A4B1B687BB11D7A002236
:10A800009E1DD4B2A54201D81B68F5E7013202EBC8
:10A810004207F75D8742F4D101B10C701846F0BDD4
:10A82000683900201146FFF771BD08B500F00F032D
:10A83000082B07D8FFF776FD006818B1BDE808407F
:10A84000FFF764BD102008BD38B5054B05461C68F0
:10A8500004B938BD29462046FFF758FD2368F6E7BE
:10A860006839002038B5074B05461C680CB906202E
:10A8700038BD29462046FFF749FD0628F8D1236850
:10A88000F3E700BF6839002038B504460D4601F0F3
:10A8900032FD48B1054B1B78022B05D129462046D5
:10A8A000BDE8384001F02ABD082038BD7C390020C1
:10A8B00038B504460D4601F01EFD48B1054B1B7826
:10A8C000022B05D129462046BDE8384001F090BD55
:10A8D000082038BD7C390020F8B543689B680546E0
:10A8E0000C46164613B92EB1072002E098470628F9
:10A8F000F9D0F8BD2B7AA34213D9093504EB4404EF
:10A900002C446778F3B29F4201D80020F1E76278C7
:10A910009A4208D9A219A378D05CFFF755FF0136F7
:10A92000F0E77378FFDE00231B78FBE74368DB6802
:10A9300070B505460C4603B198472B7AA34213D94C
:10A94000093504EB44042C4400256678EBB29E42A2
:10A9500000D870BD62789A4209D96219A378D05C98
:10A9600002F06EF80135F1E700235B78FFDE00238B
:10A970001B78FBE743681B6903B11847184670470B
:10A9800070B5084B1C6804B970BD267A0025E9B281
:10A990008E4201D82368F5E700222046FFF79CFF8E
:10A9A0000135F4E76839002070B5084B1C6804B91C
:10A9B00070BD267A0025E9B28E4201D82368F5E7FA
:10A9C0002046FFF7B3FF0135F5E700BF68390020E7
:10A9D00038B50478092C054620D023D8032C00F084
:10A9E000BC8012D8012C00F0A68040F28D8003209C
:10A9F000FFF7B8FC0220FFF78DFC2846FFF724FF85
:10AA00002846BDE83840FFF7A5BC052CF8D0C0F0BB
:10AA1000B380062C00F0BF80082C13D12046FFF72E
:10AA200079FC95E0812C0ED005D80F2CF6D0802C27
:10AA300044D00A2CF1E7832C4CD021D3842C53D062
:10AA4000852CDDD038BD5E48FFF784FC5C48FFF7FD
:10AA5000FBFE0D20FFF75EFCFFF7A6FFFFF7CDF929
:10AA6000584B1B6853B9584B187A00F0010001F09D
:10AA70006BFB0120BDE83840FFF774BC0120F4E710
:10AA8000FFF792FF01F078FF0020FFF76BFC4F48C3
:10AA9000FFF7DAFE4D48FFF75DFC0E20FFF73AFCAA
:10AAA0004B4B1B78023BDBB2062BCBD8494AD35C1D
:10AAB000002BC7D0BDE8384000F0B8BB444B1B7832
:10AAC000062B05D0072B01D0052BBBD10220D1E7E7
:10AAD0000820CFE73E4B1B78032BB3D101F084FF56
:10AAE0000028AFD00420C5E7394B1B78032B05D1D4
:10AAF00001F07AFF10B10420FFF734FC01F060FB95
:10AB000000289FD00620B5E7314B1B78032B01D0DE
:10AB1000082B02D13048FFF75BFF0020FFF7FAFB5C
:10AB2000284B1C68002C8DD020462946FFF7EEFBF1
:10AB300023685C68F6E7FFF737FFFFF755F9022057
:10AB4000FFF710FC2046FFF7E5FB2846FFF702FC65
:10AB50002846BDE83840FFF777BE1D4B1B78082B11
:10AB600006D10220FFF7FEFB01F076FB0320EAE7A7
:10AB70000520FFF7F7FBF9E70320FFF7CBFB1748AA
:10AB8000FFF7E8FB1548FFF75FFE114B1B78062B1C
:10AB90009CD107206EE78078FFF7C4FB2946436805
:10ABA0000068984700283FF44DAFA87802073FF4AB
:10ABB00049AF03073FF546AFBDE8384001F060BC40
:10ABC000020903006C390020B0370020030903009C
:10ABD0007C390020E4080300040903000509030090
:10ABE00073B5244D002301932B6823B922492348D0
:10ABF000FDF7C1FD28602C68ECB1A68886B1E3881A
:10AC0000B3F5006F24BF0023E380E388ADF806307E
:10AC10005A1C013EE280A68001A8FFF7D9FE07E09A
:10AC20002046FFF7D5FE14491448FDF7CFFD2E60EE
:10AC3000012002B070BD124B18680028F9D00DF148
:10AC400003008DF80340FDF7D3FB0E4B0C481A8828
:10AC5000B2F5006F28BF1C801A88ADF80620511C81
:10AC600019800121FDF7F8FD9DF80300FDF7E4FBD5
:10AC7000D2E700BF80390020AC37002058390020CF
:10AC8000783900204C38002010B50E4B53F8204086
:10AC900023780BB9A01C10BD0020FFF72FFB013C4F
:10ACA00000235A1CA15C39B9DBB201335B00DBB273
:10ACB00043F440730380EEE7D3B220F81310134639
:10ACC000EFE700BF6809030008B9FFF7DDBF0528FB
:10ACD00007D8054A105C20B1044B53F82030002BF4
:10ACE000F3D10020704700BF80090300680903000A
:10ACF00070B54FF0805286B0D2F8A830D2F8A420B8
:10AD000000926FEA83436FEA93439BB20A4A0B4E69
:10AD10000D2102A804F026FD02AD002402A804F0D3
:10AD2000C4FD844201D306B070BD15F8013B06F89E
:10AD3000013B0134F2E700BF86090300843900209B
:10AD4000054B1B68082B01BF044B1868B0FA80F054
:10AD5000400918BF00207047300100103401001076
:10AD600008B54FF080430022C3F80C21C3F810212E
:10AD7000C3F838254FF0805203F54043D2F804144D
:10AD8000C3F82015D2F80814C3F82415D2F80C140F
:10AD9000C3F82815D2F81014C3F82C15D2F81414DF
:10ADA000C3F83015D2F81814C3F83415D2F81C14AF
:10ADB000C3F84015D2F82014C3F84415D2F824146F
:10ADC000C3F84815D2F82814C3F84C15D2F82C143F
:10ADD000C3F85015D2F83014C3F85415D2F834140F
:10ADE000C3F86015D2F83814C3F86415D2F83C14CF
:10ADF000C3F86815D2F84014C3F86C15D2F844248F
:10AE0000C3F87025FFF79CFF10B1384B384A1A6021
:10AE1000FFF796FF18B1374BFB22C3F81825FFF751
:10AE20008FFF48B13449354B0A681B6822F00F0286
:10AE300003F00F0313430B60FFF782FF18B1304B91
:10AE40004FF400721A604FF08043D3F80024D20709
:10AE500044BF6FF00102C3F800242A4AD2F88830B8
:10AE600043F47003C2F88830BFF34F8FBFF36F8F86
:10AE70004FF01023D3F80022002A03DBD3F804326A
:10AE8000002B2FDA204B0122C3F80425D3F800242D
:10AE9000002AFBD04FF010221221C2F80012D3F882
:10AEA0000024002AFBD04FF010231222C3F8042202
:10AEB000154B1A46D3F800140029FBD00021C3F823
:10AEC0000415D2F80034002BFBD0BFF34F8F0D498F
:10AED0000E4BCA6802F4E0621343CB60BFF34F8F9E
:10AEE00000BFFDE70A4B0B4A1A6008BD8C560040B4
:10AEF0004881030000F00040E40E004058020010BA
:10AF00004096024000ED00E000E001400400FA0538
:10AF1000502A00200090D003074B1B5C1F2B8ABFD8
:10AF2000064A4FF0A04203F01F03D2F80405D840B0
:10AF3000C04300F001007047930903000003005074
:10AF4000074B1B5C1F2B86BF03F01F0305494FF007
:10AF5000A041012202FA03F3C1F80C35704700BF8B
:10AF60009309030000030050074B1B5C1F2B86BF97
:10AF700003F01F0305494FF0A041012202FA03F339
:10AF8000C1F80835704700BF930903000003005063
:10AF900008B50020FFF7E8FF0120FFF7E5FF0220DA
:10AFA000FFF7E2FF0320BDE80840FFF7DDBF08B56B
:10AFB0000020FFF7C5FF0120FFF7C2FF0220FFF7C7
:10AFC000BFFF0320BDE80840FFF7BABF0A4B185C7B
:10AFD0001F288ABF094B4FF0A04300F01F00D3F891
:10AFE00004250121814021EA02000A40C3F8080536
:10AFF000C3F80C25704700BF9309030000030050FD
:10B00000074B1B5C1F2B8ABF064A4FF0A04203F080
:10B010001F03D2F81005D840C04300F0010070476C
:10B020008F090300000300500B2809D00C2809D019
:10B03000182809D019280CBF03204FF0FF307047A3
:10B04000002070470120704702207047014B185CB8
:10B05000704700BF8F090300C20710B504460CD526
:10B060004FF0A0430322C3F83427C3F83827C3F8AE
:10B070003C27C3F84027FFF78BFFA3070AD54FF003
:10B08000A0430C22C3F82C27C3F83027C3F860274D
:10B09000C3F8642710BD42DF704743DF70470000EC
:10B0A00038B5074C051E04F1080318BF1C46236879
:10B0B0002BB11A6822605B6828469847F7E738BDCD
:10B0C0009C39002020B9054B01225A70FFF7E8BFD8
:10B0D000012802D1014A9070F8E7704794390020A6
:10B0E00020B9034B01225A70FFF7DABF704700BF47
:10B0F0009439002038B50B4C237883B90A48636033
:10B10000A3602361E36000F0BFF8054604F068F82F
:10B1100008B900F0C5F801232370284638BD8525FD
:10B12000FBE700BF94390020C5B0020037B50B4CD7
:10B1300000230DF107008DF80730FDF759F9E3689A
:10B14000013BE360E56815B900F0C0F8A5709DF813
:10B150000700FDF771F903B030BD00BF943900203E
:10B16000012813B509D018B103281CD002B010BDB6
:10B170000F4B0122C3F88020F8E70E4C00230DF19D
:10B1800007008DF80730FDF733F923780BB9FFF787
:10B19000B1FFE3689DF807000133E3600123A3706A
:10B1A000FDF74AF9E2E700F07BF8FFF7BFFFDDE7C4
:10B1B00000E100E09439002037B51B4C6378054668
:10B1C00003F0FF029BB110B14368002098470023B1
:10B1D0000DF107008DF80730FDF70AF963689DF857
:10B1E000070001336360FDF727F903B030BD0DF1AF
:10B1F00007008DF80720FDF7FBF825B1A26813467C
:10B2000053B92A60A5606368002BE7D103F0E8FF1B
:10B2100030B1FFF740FFE1E79D42F4D01B68EFE754
:10B2200000F060F8DAE700BF9439002073B50F4CE6
:10B2300000230DF107008DF80730FDF7D9F863689A
:10B24000013B6360666836B903F0CAFF054640B14A
:10B25000FFF723FF66709DF80700FDF7EDF802B0D9
:10B2600070BD00F051F86570F5E700BF943900201B
:10B2700050E8002F02EA010340E8003C9CF0000F78
:10B28000F6D1104670470000044A137923B9012112
:10B29000106091801846704785207047A8390020BB
:10B2A000084B1A68D2075FBFC02283F8002301222F
:10B2B0001A604FF080420123C2F81835024A137019
:10B2C000704700BF00E100E0B0390020044B0122CC
:10B2D0001A604FF08042D2F81834DB03FBD4704779
:10B2E0000C000040074B00221A6082B01B680193DB
:10B2F000019B4FF080430122C3F804231A6002B07F
:10B30000704700BF00010040074B01221A604FF058
:10B310008042D2F80C3403F00113B3F1011FF8D0CE
:10B32000024B00225A71704704000040A8390020E7
:10B33000154B07B51A687AB100221A601B68009392
:10B34000009B4FF080430122C3F808230F4B58792C
:10B3500010B95A711B6898470D4B1A6882B10022C8
:10B360001A601B680193019B4FF080430222C3F8CF
:10B370000823064B1B68012003B05DF804EB184757
:10B3800003B05DF804FB00BF00010040A8390020B5
:10B390000401004000F1804000F5C040002382B06D
:10B3A000036003680193019B02B0704703681F2B81
:10B3B00083BF03F01F03036001484FF0A0407047B4
:10B3C0000003005007B5019001A8FFF7EFFF019BB4
:10B3D00000EB8300D0F8002722F44032C0F80027A9
:10B3E000D0F8003743EA0143C0F8003703B05DF8F6
:10B3F00004FB0000054B4FF0FF32072843F82020E4
:10B4000084BF1B1883F85820704700BFB439002050
:10B4100010B5174C94F86A3043BB04F13003302167
:10B42000FF22013911F0FF0103F8012BF9D1C8B255
:10B43000FFF7E0FF01310C29F9D1062200210D4868
:10B4400004F0DEF90C4BC02283F8062340221A6078
:10B450004FF4BE70FFF79EFF084B4FF00042C3F859
:10B460000423012384F86A30002010BD0820FCE783
:10B47000B4390020183A002000E100E000600040EC
:10B48000034B93F86A00003018BF0120704700BFDB
:10B49000B4390020F7B53B4E3318054693F93030E8
:10B4A000002B6CDA8B78C3F34003002B0BBF08240E
:10B4B00000240C200820844202D1042003B0F0BDF7
:10B4C00056F82470013743D1701946F8242080F8CB
:10B4D000304013B9331983F858508B785A0717D472
:10B4E000D80737D501A80195FFF760FF019B00EB56
:10B4F0008300D0F8003723F00203C0F80037224859
:10B50000EA0805F007070123BB40875C3B438354EF
:10B5100088780A7810F0020028D0A40004F1804452
:10B5200004F5C0442D02D4F8103523F44F3323F42E
:10B530004073C4F810351204D4F8103505F47C5566
:10B5400002F4403215431D43C4F810550020B5E7FE
:10B550000134B0E701A84A780195FFF727FF019B66
:10B5600003F5E073920040F82320C8E7083C344418
:10B5700094F8605045EA821284F860209EE7082023
:10B580009CE700BFB4390020183A002073B5224C64
:10B590002518064695F93020072A19DD224492F82D
:10B5A00058309B09032B0FD1019001A8FFF7FEFE35
:10B5B000019AD0F81035D340DB0707D4022130467A
:10B5C000FFF700FF02B070BD012BF7D00321F6E7B3
:10B5D000D3B2072BF6D8930003F1804303F5C043A1
:10B5E000D3F8100540F00100C3F8100502F1400047
:10B5F000800080B2FFF7CEFE0029E3D095F930300D
:10B6000054F82330002BDDD0012303FA02F2034B60
:10B61000C3F80423D6E700BFB4390020006000401F
:10B6200007B5019001A8FFF7C1FE019BD0F81005F6
:10B63000D84000F0010003B05DF804FB2DE9F04FA5
:10B64000002489B0CDE90244624D4FF4807201219B
:10B6500002F1804303F5C04390B21B68012B06D171
:10B66000D5F804330B4202D0FFF794FE0C430432AA
:10B67000B2F5907F4FEA4101EAD1574B1B68012B8D
:10B680000ED14FF4BE70FFF785FE4FF0A04344F09B
:10B690000044D3F810350293504BD3F81035039380
:10B6A00014F0FF0F1AD04E4F00250126344210D05F
:10B6B000AB0003F1804303F5C043D3F81005D3F882
:10B6C000101557F8253023B1C1F30141C0F305200F
:10B6D00098470135082D4FEA4606E7D1002C75DA68
:10B6E0000DF1100800230493C8F804304FF0FF3325
:10B6F000CDE90633DFF8E8A0DFF8E89000273D4603
:10B7000019F9014B631C48D0E4B2012324F0C006B0
:10B7100004F0070203FA02F2F00808AB191811F856
:10B72000083C134239D00AEB0603A40993F93030E0
:10B730005AF823B0BBF1000F08D1032C2DD118F813
:10B7400000C04CEA020C08F800C001E0032CF6D05F
:10B7500001A80196FFF72AFE019B11F8181C03F5BA
:10B76000E07C114250F82C00C0F3014005D00228C3
:10B7700013D1032C0BD1214604E003280DD1032C57
:10B7800005D102213046FFF71DFE0135EDB2BBF1B8
:10B79000000F02D021463046D8470137042FAFD1E1
:10B7A000A5B14FF0A0430299D3F8102503F54073DB
:10B7B0009142D3F8103502D10399994206D00292F2
:10B7C0000393049A059B0692079395E709B0BDE899
:10B7D000F08F00BF006000407C610040000300501B
:10B7E000B4390020143A0020014B1B68184700BFF1
:10B7F000203A002000F1804000F51C300123036056
:10B80000BFF36F8FBFF34F8F70470000064A10F0F1
:10B81000800F00F00F0314BFD2F81005D2F8140502
:10B82000D84000F00100704700700240054B1B68D3
:10B83000082B01BF044B1868B0FA80F0400918BF0C
:10B8400000207047300100103401001030B54C6802
:10B850000D689C4229BFC0E900530021E41AED188D
:10B8600032BFC0E900514C600D60934203D1201CEF
:10B8700018BF012030BD0020FCE74B6810B59A428C
:10B880000C6828BF1A46C0E90042981A0B68486045
:10B89000134400300B6018BF012010BD30B54C6858
:10B8A0000B68A24228BF2246002A14BF1D4600256D
:10B8B000A4EB02041344C0E900524C600B6014BFB7
:10B8C0000120002030BD0000054B10F0800FA3F1D7
:10B8D000900208BF134600F00F0003EB0010704702
:10B8E0009C3B002010F0800F14BF0023102300F0B9
:10B8F0000F00184470470000054B1B68082B02BF5F
:10B90000044B00221A60044B00221A70704700BFDB
:10B91000300100101C7C0240293A002007B5084A7B
:10B9200000231370074A0193137001238DF804302C
:10B93000054B01A81B68984703B05DF804FB00BFE6
:10B94000283A0020303C00202C3C002070470000AA
:10B95000F8B54D680B4F954228BF15460C46064674
:10B960002A460968384603F022FF60682368401BB6
:10B97000C6E9007560601D440030256018BF0120D5
:10B98000F8BD00BF383C0020F8B54C68944228BF91
:10B99000144606460D468CB1094F096822463846C2
:10B9A00003F005FF37606B6874601B1B6B602B68CE
:10B9B000201C23442B6018BF0120F8BD0460F2E76F
:10B9C000383C002007B500238DF804300B4BD3F82A
:10B9D0002025ADF80620D3F8C034094A002B13689F
:10B9E0000CBF4FF480714FF001210B431360054BE6
:10B9F00001A81B68984703B05DF804FB0070024083
:10BA0000083B00202C3C002008B50146FFF774FFDE
:10BA1000FFF75AFF837B032B0AD10846FFF762FF2B
:10BA200001218140C9430448BDE80840FFF720BC1C
:10BA30000368002BF1D008BD983A00208720FFF75B
:10BA4000E3BF8620FFF7E0BF8520FFF7DDBF84203E
:10BA5000FFF7DABF8320FFF7D7BF8220FFF7D4BFFD
:10BA60008120FFF7D1BF000008B5FFF745FF084B65
:10BA700093F89E20032A06D16FF001010548BDE826
:10BA80000840FFF7F5BBD3F89030002BF4D008BD89
:10BA90000C3B0020983A0020FFF7E6BF07B5FFF700
:10BAA0002BFF0D4B93F88E20032A11D0D3F8803052
:10BAB00073B96FF080710948FFF7DAFB06238DF840
:10BAC00004300823ADF80630054B01A81B689847E1
:10BAD00003B05DF804FB00BF0C3B0020983A002047
:10BAE0002C3C002007B5FFF707FF104B93F81E21F1
:10BAF000032A07D16FF480710D48FFF7B9FB03B03B
:10BB00005DF804FBD3F81031002BF8D16FF480718D
:10BB10000748FFF7ADFB06238DF804308823ADF806
:10BB20000630044B01A81B689847E8E70C3B00204F
:10BB3000983A00202C3C0020204B13B5D3F8004449
:10BB4000C3F80044BFF36F8FBFF34F8FBFF36F8F06
:10BB5000BFF34F8FE1050BD5194B01221A7000235B
:10BB6000019302238DF80430164B01A81B689847F7
:10BB7000A2050AD5124A00230193137003238DF8FE
:10BB80000430104B01A81B689847630513D50C4B74
:10BB90001A7882B100221A70084B0121C3F80815E7
:10BBA0005820FFF727FE042301928DF80430054B3F
:10BBB00001A81B68984702B010BD00BF007002408A
:10BBC000283A00202C3C0020064B1868082802D197
:10BBD00004331B6823B9A0F10D0358425841704744
:10BBE0000120704730010010012273B502FA01F5FF
:10BBF0001E491F4E0B6810F0800F43EA05030446F0
:10BC00000B6027D000F00F021A4B33F8123003F10B
:10BC1000804303F51C331A684AB100221A60BFF34F
:10BC20006F8FBFF34F8F802811D0FFF7EDFE316883
:10BC300029400AD106238DF804308DF806408DF88E
:10BC400007100D4B01A81B68984702B070BDFFF7A5
:10BC50000BFFECE733681D42F7D106238DF8043063
:10BC60008DF806008DF80720EBE700BF083B0020A9
:10BC7000983A0020C20903002C3C002008B5054B6F
:10BC80001A781046FFF72EFEBDE808400146104620
:10BC9000FFF7AABF303C00202DE9F04F7A4B87B068
:10BCA0001A780193002A40F08380DFF808A2DFF8B9
:10BCB000DCB1764BDAF800101D68294078D011F01D
:10BCC000012578D095FAA5F5B5FA85F50F2D86BF33
:10BCD000A5F11004E4B245F080042046FFF7F4FD1E
:10BCE0004FFA84F904F00803B9F1000F06460093F7
:10BCF000828965DAD0E9003104A8984700B930603C
:10BD0000634B1B68082B02BF624B82221A60019BA7
:10BD1000059A049801211970A940B368DBF8005016
:10BD2000134425EA0101B9F1000FCBF80010B3600C
:10BD300004F00F040099584B7CDA002972D0C3F844
:10BD4000A006C3F8A426FFF771FDA30024B2650086
:10BD5000524A534900287DD0B9F1000FB5BF914632
:10BD6000894604242824A9444E4E4F4D1C440027E4
:10BD70002F60BFF36F8FBFF34F8F2046FFF73AFD61
:10BD8000022000F0CDFF2B68002BF1D01E2000F028
:10BD9000C7FF33689B065BD5012000F0C1FFB9F8EF
:10BDA000003003F1804303F51C331B68002BDFD008
:10BDB00007B0BDE8F08F91FAA1F1B1FA81F585E7FE
:10BDC000009B35493BB3D1F8C08418F4803F18BFBD
:10BDD0004FF0000843467168376804A8B847049BD1
:10BDE000002B8BD0059B434588D201214FF00208E0
:10BDF000A94086F80E80C9435046FFF739FA06235A
:10BE00008DF80C30294B8DF80E408DF80F801B6893
:10BE100003A898474DE704F00F0303F5947351F816
:10BE20002380D7E7142101FB0433C3F80006C3F8CD
:10BE3000042688E721B1C3F8A007C3F8A42782E746
:10BE4000142101FB0433C3F80007C3F804277AE781
:10BE500002209CE7B9F1000FB4BF04202820184449
:10BE6000FFF7C8FC12EA290938BF8946104939F89A
:10BE7000143003F1804303F51C331A68002A97D16C
:10BE80000A68002AF9D093E7293A0020083B0020ED
:10BE9000300100101C7C024000700240C209030007
:10BEA000DE09030074740240047102402C3C00203F
:10BEB00000710240983A002038B5174BD3F86C4413
:10BEC000C3F86C44BFF36F8FBFF34F8FFFF7AEFC27
:10BED00038B1124A136823F0011103F001130C4327
:10BEE000136001251CB9BDE83840FFF7D5BE94FAB0
:10BEF000A4F3B3FA83F30F2BD9B2C8BFA1F110009A
:10BF000005FA03F3CCBFC0B241F0800024EA030479
:10BF1000FFF76AFEE6E700BF00700240343C0020F5
:10BF200037B50446FFF7E8FCFFF7CEFC837B032B15
:10BF30000CD12046FFF7D6FC01218140C9430F48B0
:10BF4000FFF796F9FFF7A8FE03B030BD0568002D96
:10BF5000F8D12046FFF7C6FC01218140C9430748BC
:10BF6000FFF786F906238DF80430054B8DF806405F
:10BF70008DF807501B6801A89847E3E7983A00201E
:10BF80002C3C00200720FFF7CBBF0620FFF7C8BFDF
:10BF90000520FFF7C5BF0420FFF7C2BF0320FFF74E
:10BFA000BFBF0220FFF7BCBF0120FFF7B9BF0000F1
:10BFB000024A00231360024A137070472C3C002091
:10BFC0002A3A0020564B4FF4006213B5C3F8002400
:10BFD000BFF36F8FBFF34F8FFFF7F6FDB0B10023B4
:10BFE0000DF107008DF80730FCF702FA4D4B4E4A71
:10BFF00018680321002840F08A8049F275301860E3
:10C00000116018609DF80700FCF716FA474B1B6893
:10C01000082B15D100230DF107008DF80730FCF730
:10C02000E7F9404B424A1868C021002871D149F213
:10C0300075301860116018609DF80700FCF7FCF976
:10C04000374B0122C3F80025BFF36F8FBFF34F8F2B
:10C05000D3F800241205FBD54FF40062C3F8002486
:10C06000BFF36F8FBFF34F8F304B1B68082B22D16C
:10C070000DF1070000248DF80740FCF7B9F9294BB2
:10C080002B4A1868002846D149F2753119601060B2
:10C0900019609DF80700FCF7CFF9244B1B68082BAB
:10C0A00009D1244B40F2E3721A6040225A60BFF378
:10C0B0006F8FBFF34F8F1A4B00248022C3F81C25CB
:10C0C000C3F830451C4B40F2FF121A601B4B1C603A
:10C0D000FFF712FC1A4B1C701A4B02221A70FFF762
:10C0E00073FD90B10DF107008DF80740FCF780F962
:10C0F0000C4B0D4A186880B949F27531196010600F
:10C1000019609DF80700FCF797F902B010BD1160A7
:10C1100078E7116090E71460BBE71460F1E700BFB7
:10C120000070024000EC064014ED064030010010A3
:10C1300014EC064000780240083B0020983A0020AA
:10C14000303C00202A3A002008B50F4B00221A701C
:10C15000C0B9FFF76BFB0D4B0D4A002814BF184602
:10C1600010460C4B0C4AC3F80403C02182F8271375
:10C17000802151600122C3F80425BFF36F8FBFF304
:10C180004F8F08BD0148ECE7283A00200714E00172
:10C190000714C0010070024000E100E0024B187873
:10C1A000003018BF012070472A3A0020034B18784E
:10C1B000012894BF00200120704700BF2A3A0020C8
:10C1C00037B500250DF107008DF80750FCF710F981
:10C1D000134B1B7803F0FF04B3B1124AD2F82C358D
:10C1E000DBB1114BC2F82C551B68082B0CD10F4B3F
:10C1F000186802F58F2202F21442C02158B949F2A0
:10C2000075301860116018609DF80700FCF714F98C
:10C21000204603B030BD1160F6E71C46F4E700BFCE
:10C22000283A0020007002403001001000EC064067
:10C23000024B034AC3F80823704700BF0070024056
:10C2400004148001024B034AC3F80423704700BF63
:10C250000070024004148001014B00221A707047E4
:10C26000283A002008B5FFF72FFB818108BD0000A8
:10C27000F8B51C4B1C7894BB1B4A106001221A7045
:10C2800025462646EBB213F0080F43F080070CBF9B
:10C2900040214FF400713846FFF7E4FF3846FFF7BE
:10C2A00013FB0135092D867306608660EAD14021B3
:10C2B00000252046FFF7D6FF2046FFF705FB013497
:10C2C000E4B2092C85730560856001D10020F8BDBA
:10C2D00014F0080F14BF4FF400714021E9E7082063
:10C2E000F5E700BF2A3A00202C3C002008B5FFF7F4
:10C2F000EBFA808908BDFFF789BA00002DE9F34702
:10C30000002305460DF1070089468DF80730FCF73C
:10C310006FF815F00F0803D12A4B1B78AB424DD1B3
:10C32000294B2A4A1C6816682846FFF7DBFAE443C3
:10C33000A4B20127344387403C40924640D128466E
:10C34000FFF7C2FA0C232A06844603FB08F331D513
:10C350001F4AD9F80010134401F06041D9F80820B1
:10C36000B1F1005F02F001021FD1E2B9194ACCF825
:10C37000002099E8070083E80700CCF80430002388
:10C38000CCF808308CF80E30134B3E438022CAF8AC
:10C390000060C3F804219DF80700FCF74DF8204623
:10C3A00002B0BDE8F0870D4AE1E70AB90C4ADEE7C2
:10C3B0000C4ADCE70C4A13440C4AD8E71024EAE79D
:10C3C0001124E8E7303C0020083B0020983A002088
:10C3D0009C3A00207BB8020000E100E09DB802001A
:10C3E00051B9020089B902002C3A00204DB8020070
:10C3F0002DE9F341002380460DF107000E468DF82C
:10C400000730FBF7F5FF18F00F0F03D1164B1B7821
:10C41000434524D1154B164F1C683D684046FFF735
:10C4200061FAE443A4B201212C4381400C4018D1AD
:10C430004046FFF749FA33680360736843600D4B69
:10C4400084602943802284733960C3F804219DF8F5
:10C450000700FBF7F1FF204602B0BDE8F081102491
:10C46000F5E71124F3E700BF303C0020083B002033
:10C47000983A002000E100E000487047383C002076
:10C48000044B40F48070C3F81805BFF36F8FBFF3FF
:10C490004F8F704700700240020713D400F00F0363
:10C4A00010F0800F084A0BBF03F5887303F58473FF
:10C4B00002EB830352F8230008BF5868431E58421A
:10C4C000584170470020704700700240064BC3F887
:10C4D0000C05BFF34F8F40F48070C3F80C05BFF319
:10C4E0006F8FBFF34F8F70470070024010B5082266
:10C4F0000021044603F084F90E4BD3F88024227007
:10C50000D3F884246270D3F88824D3F88C1442EAD8
:10C5100001226280D3F89024D3F8941442EA0122D5
:10C52000A280D3F89824D3F89C3442EA0323E38012
:10C5300010BD00BF0070024008B5FFF777F958B191
:10C54000EFF3108272B64C20FFF754F94C20FFF73E
:10C5500051F982F3108808BD4C20BDE80840FFF770
:10C5600049B9000013B5FFF7C7F90F4B9A7B032AAF
:10C5700006D16FF480310D48FEF77AFE02B010BD8F
:10C580001C6874B96FF480310848FEF771FE062309
:10C590008DF80430064BADF806401B6801A898479B
:10C5A000ECE7FFF7C9FFE9E70C3B0020983A0020D1
:10C5B0002C3C00205020FFF71DB95420FFF71AB97A
:10C5C000014B1878704700BF303C0020F7B5044697
:10C5D000FFF72CF902462046FFF784F90125854034
:10C5E000ED431B4ED2B100270DF107008DF8077007
:10C5F00004F00F04FBF7FCFE3068164B6400284083
:10C6000004F2C5743060043343F8044C1F601B68A7
:10C610009DF80700FBF710FF03B0F0BD0DF1070018
:10C620008DF80720FBF7E4FE306814F0080200EAFA
:10C6300005003060ECD104F00F0404F59474064B4F
:10C6400043F82420BFF36F8FBFF34F8FE0E700BFA5
:10C65000083B00200078024000700240F7B500233C
:10C6600004460DF103008DF80330FBF7C1FE2046B0
:10C67000FFF72AF905462046FFF734F9012314F0A5
:10C68000800F03FA00F0294917D10B6830EA030242
:10C690000AD02046FFF79AFF0323AB739DF80300EF
:10C6A000FBF7CAFE03B0F0BD2A60C043204A034036
:10C6B0000B60136803401360EEE7230711D4802C4E
:10C6C0001C4E1D4B29D004F00F0202F2DA32520048
:10C6D00032601A681E68D2B242F0020232431A6017
:10C6E0001B68134E0A68336862EA03070742D5D015
:10C6F00022EA0002184300230A602B600323AB7375
:10C700008DF807300D4B306006228DF804208DF82F
:10C7100006401B6801A89847C0E740F2B472326037
:10C720001A681E68D2B242F00402D7E7983A002095
:10C73000083B002000780240047802402C3C002096
:10C74000FFF78CBFF7B5174B174CD3F8805423680D
:10C75000164EDA43164B37781B6892B238461A43A6
:10C76000FFF7C0F8012303FA00F0104202D0384668
:10C77000FFF774FF6FF0011105F080050C4835706C
:10C78000FEF776FD236843F0010323600023019345
:10C7900005238DF80430074B01A81B68984703B0A8
:10C7A000F0BD00BF00700240083B0020303C00207C
:10C7B000983A00202C3C0020554B2DE9F041D3F84D
:10C7C0000453002229461646012400297CD1FFF794
:10C7D0002DF8002869D04F4B1B78002B65D19602AD
:10C7E00063D54D494C4E40F2A9730B604B4B1C680E
:10C7F00014F0FF041CBF1868044040F2AA700860DF
:10C80000186810F0FF001CBF1968084040F2AB71B7
:10C810003160196811F0FF01B4461CBF1E68314039
:10C8200040F2AC76CCF800601E6834403C4E08D034
:10C8300037682743376040F2A977CCF800701C6056
:10C840001C68354F40F2AD743C601C68204008D035
:10C85000346844EA0044346040F2AA743C601860D2
:10C8600018682D4840F2AE740460186801400DD07D
:10C87000CC0748BF42F40002C806274840F2AB7418
:10C88000046019601B6848BF42F00102336833F04E
:10C8900001111CBF05F08070024313F0011F04D08A
:10C8A0006B0544BF316042F480621E4F02F4000603
:10C8B00022F400044FF00108E4B9FFF7EDF92EB3BC
:10C8C000BDE8F041FFF73EBF91FAA1F31648B3FA75
:10C8D00083F39F00384407683FB10660BFF36F8F52
:10C8E000BFF34F8F04FA03F0024304FA03F321EA83
:10C8F00003016AE794FAA4F5B5FA85F557F82530EF
:10C9000008FA05F5984724EA0504D5E7BDE8F08163
:10C9100000700240293A002000780240047802406A
:10C92000343C0020F009030000710240F8B5104EBD
:10C93000104A34681268240C2404144301271CB9DB
:10C9400040F2FF133360F8BD94FAA4F5B5FA85F50B
:10C95000E8B20F2DC6BF1038C0B240F08000030708
:10C9600001D4FFF77BFE07FA05F524EA0504E6E7A4
:10C97000083B0020983A002038B50C4C8025C4F8BC
:10C98000845163681B060FD5FFF7D0FF084B0022C8
:10C99000C3F80425BFF36F8FBFF34F8F4FF0FF3203
:10C9A000C4F88450C3F8082338BD00BF00E100E09C
:10C9B0000070024008B5FFF7DFFF094BD3F80423EE
:10C9C000C3F808230022C3F80025BFF36F8FBFF31D
:10C9D0004F8FFEF791FF034B01221A7008BD00BF75
:10C9E000007002402A3A002013B500230DF1070021
:10C9F0008DF80730FBF7FCFC0F4B1B7803F0FF04AE
:10CA00003BB900249DF80700FBF716FD204602B055
:10CA100010BDFFF78BFF094AD2F8003413F40073FE
:10CA2000EFD10121C2F82C15D2F80014890544BFBA
:10CA3000C2F82C351C46E5E7283A00200070024079
:10CA400010B50446FFF70AFE134A04F00F0064B263
:10CA5000002C4FF00103B4BFD2F81015D2F8141512
:10CA600003FA00F36FEA0303B5BF0B400B40C2F8B3
:10CA70001035C2F81435BFF36F8FBFF34F8F074BDC
:10CA8000074A13EA240438BF14460123225C93406A
:10CA9000014AC2F8083310BD00700240B909030012
:10CAA000D4090300F7B5234B234A244D46B213EAB9
:10CAB000260338BF134600F00F070121DB5D01FAA2
:10CAC00003F3C5F804330446FEF7A0FE80BB002E36
:10CAD000B4BFD5F81035D5F8143501FA07F1B5BF54
